:100000000C9434000C943E000C943E000C943E0082
:100010000C943E000C943E000C943E000C943E0068
:100020000C943E000C943E000C943E000C943E0058
:100030000C943E000C943E000C943E000C943E0048
:100040000C943E000C943E000C943E000C943E0038
:100050000C943E000C943E000C943E000C943E0028
:100060000C943E000C943E0011241FBECFEFD8E04C
:10007000DEBFCDBF0E9475000C9493000C9400006D
:10008000803339F0813351F0823369F020E030E081
:1000900002C02FE330E0833359F002C026E030E0A5
:1000A000843359F002C02BE530E0853359F002C0AB
:1000B0002FE430E0863359F002C026E630E0873383
:1000C00069F002C02DE630E0883359F002C02DE718
:1000D00030E0893341F42FE630E005C027E030E01E
:1000E00002C02FE730E0C90108958FEF84B915B839
:1000F0002FEF89E698E1215080409040E1F700C061
:100100000000C0E38C2F0E94400085B92FEF89E6E4
:1001100098E1215080409040E1F700C00000CF5F9F
:0A012000CA3329F3EFCFF894FFCFA4
:00000001FF
